:100000000C942A000C94BE000C94EB000C94180184
:100010000C9447000C9447000C9447000C94470044
:100020000C9447000C9447000C9472010C94450109
:100030000C9447000C9447000C9447000C94470024
:100040000C9447000C9447000C9447000C94470014
:100050000C94470011241FBECFE5D8E0DEBFCDBF12
:1000600010E0A0E6B0E0E2E4F3E002C005900D92FB
:10007000A036B107D9F720E0A0E6B0E001C01D929C
:10008000AA36B207E1F70E9449000C949F010C9434
:10009000000042E060E089E390E00E94560041E009
:1000A00060E089E390E00E949E00F9CFFC014130BE
:1000B000C9F018F0423061F10895683081F0218173
:1000C00081E090E002C0880F991F6A95E2F7809561
:1000D000922F98239183928189238283089511829C
:1000E00012820895683081F0218181E090E002C0A1
:1000F000880F991F6A95E2F7982F90959223918324
:100100009281892B8283089511828FEF82830895D3
:10011000683081F0218181E090E002C0880F991F52
:100120006A95E2F7922F982B91839281809589238B
:10013000828308958FEF8183128208956830D9F009
:10014000413061F4FC01428121E030E002C0220F25
:10015000331F6A95E2F7242B22830895FC01428124
:1001600021E030E002C0220F331F6A95E2F72095AC
:10017000242322830895FC01428308951F920F9245
:100180000FB60F9211242F933F934F935F936F936A
:100190007F938F939F93AF93BF93EF93FF93809140
:1001A000640090916500892B29F0E0916400F09142
:1001B00065000995FF91EF91BF91AF919F918F914C
:1001C0007F916F915F914F913F912F910F900FBE53
:1001D0000F901F9018951F920F920FB60F92112437
:1001E0002F933F934F935F936F937F938F939F933F
:1001F000AF93BF93EF93FF93809162009091630060
:10020000892B29F0E0916200F09163000995FF913C
:10021000EF91BF91AF919F918F917F916F915F917E
:100220004F913F912F910F900FBE0F901F901895F7
:100230001F920F920FB60F9211242F933F934F935B
:100240005F936F937F938F939F93AF93BF93EF933E
:10025000FF938091600090916100892B29F0E091DB
:100260006000F09161000995FF91EF91BF91AF910E
:100270009F918F917F916F915F914F913F912F91BE
:100280000F900FBE0F901F9018951F920F920FB6F0
:100290000F9211242F933F934F935F936F937F930C
:1002A0008F939F93AF93BF93EF93FF9380916800D9
:1002B00090916900892B29F0E0916800F091690024
:1002C0000995FF91EF91BF91AF919F918F917F9190
:1002D0006F915F914F913F912F910F900FBE0F90B3
:1002E0001F9018951F920F920FB60F9211242F9303
:1002F0003F934F935F936F937F938F939F93AF93AE
:10030000BF93EF93FF938091660090916700892BD4
:1003100029F0E0916600F09167000995FF91EF9157
:10032000BF91AF919F918F917F916F915F914F910D
:100330003F912F910F900FBE0F901F901895F8943A
:02034000FFCFED
:00000001FF
